{
  "_format": "hh-sol-artifact-1",
  "contractName": "Raffle",
  "sourceName": "contracts/Raffle.sol",
  "abi": [
    {
      "inputs": [
        {
          "internalType": "address",
          "name": "VRFCoordinatorV2",
          "type": "address"
        },
        {
          "internalType": "uint256",
          "name": "_enteranceFee",
          "type": "uint256"
        },
        {
          "internalType": "bytes32",
          "name": "gasLane",
          "type": "bytes32"
        },
        {
          "internalType": "uint64",
          "name": "subscriptionId",
          "type": "uint64"
        },
        {
          "internalType": "uint32",
          "name": "callBackGasLimit",
          "type": "uint32"
        },
        {
          "internalType": "uint256",
          "name": "interval",
          "type": "uint256"
        }
      ],
      "stateMutability": "nonpayable",
      "type": "constructor"
    },
    {
      "inputs": [
        {
          "internalType": "address",
          "name": "have",
          "type": "address"
        },
        {
          "internalType": "address",
          "name": "want",
          "type": "address"
        }
      ],
      "name": "OnlyCoordinatorCanFulfill",
      "type": "error"
    },
    {
      "inputs": [],
      "name": "Raffle__NotEnoughETHEntered",
      "type": "error"
    },
    {
      "inputs": [],
      "name": "Raffle__NotOpen",
      "type": "error"
    },
    {
      "inputs": [],
      "name": "Raffle__TransactionFailed",
      "type": "error"
    },
    {
      "inputs": [
        {
          "internalType": "uint256",
          "name": "currentBalance",
          "type": "uint256"
        },
        {
          "internalType": "uint256",
          "name": "numPlayers",
          "type": "uint256"
        },
        {
          "internalType": "uint256",
          "name": "raffleState",
          "type": "uint256"
        }
      ],
      "name": "Raffle__UpkeepNotNeeded",
      "type": "error"
    },
    {
      "anonymous": false,
      "inputs": [
        {
          "indexed": true,
          "internalType": "address",
          "name": "player",
          "type": "address"
        }
      ],
      "name": "RaffleEnter",
      "type": "event"
    },
    {
      "anonymous": false,
      "inputs": [
        {
          "indexed": true,
          "internalType": "uint256",
          "name": "requestId",
          "type": "uint256"
        }
      ],
      "name": "RequestRaffleWinner",
      "type": "event"
    },
    {
      "anonymous": false,
      "inputs": [
        {
          "indexed": true,
          "internalType": "address",
          "name": "winner",
          "type": "address"
        }
      ],
      "name": "Winner",
      "type": "event"
    },
    {
      "inputs": [
        {
          "internalType": "bytes",
          "name": "",
          "type": "bytes"
        }
      ],
      "name": "checkUpkeep",
      "outputs": [
        {
          "internalType": "bool",
          "name": "upkeepNeeded",
          "type": "bool"
        },
        {
          "internalType": "bytes",
          "name": "",
          "type": "bytes"
        }
      ],
      "stateMutability": "view",
      "type": "function"
    },
    {
      "inputs": [],
      "name": "enterRaffle",
      "outputs": [],
      "stateMutability": "payable",
      "type": "function"
    },
    {
      "inputs": [],
      "name": "getEnteranceFee",
      "outputs": [
        {
          "internalType": "uint256",
          "name": "",
          "type": "uint256"
        }
      ],
      "stateMutability": "view",
      "type": "function"
    },
    {
      "inputs": [],
      "name": "getLastTimeStamp",
      "outputs": [
        {
          "internalType": "uint256",
          "name": "",
          "type": "uint256"
        }
      ],
      "stateMutability": "view",
      "type": "function"
    },
    {
      "inputs": [],
      "name": "getNumWords",
      "outputs": [
        {
          "internalType": "uint256",
          "name": "",
          "type": "uint256"
        }
      ],
      "stateMutability": "pure",
      "type": "function"
    },
    {
      "inputs": [],
      "name": "getNumberOfPlayers",
      "outputs": [
        {
          "internalType": "uint256",
          "name": "",
          "type": "uint256"
        }
      ],
      "stateMutability": "view",
      "type": "function"
    },
    {
      "inputs": [
        {
          "internalType": "uint256",
          "name": "index",
          "type": "uint256"
        }
      ],
      "name": "getPlayer",
      "outputs": [
        {
          "internalType": "address",
          "name": "",
          "type": "address"
        }
      ],
      "stateMutability": "view",
      "type": "function"
    },
    {
      "inputs": [],
      "name": "getRaffleState",
      "outputs": [
        {
          "internalType": "enum Raffle.RaffleState",
          "name": "",
          "type": "uint8"
        }
      ],
      "stateMutability": "view",
      "type": "function"
    },
    {
      "inputs": [],
      "name": "getRecentWinner",
      "outputs": [
        {
          "internalType": "address",
          "name": "",
          "type": "address"
        }
      ],
      "stateMutability": "view",
      "type": "function"
    },
    {
      "inputs": [],
      "name": "getRequestConfirmations",
      "outputs": [
        {
          "internalType": "uint256",
          "name": "",
          "type": "uint256"
        }
      ],
      "stateMutability": "pure",
      "type": "function"
    },
    {
      "inputs": [
        {
          "internalType": "bytes",
          "name": "",
          "type": "bytes"
        }
      ],
      "name": "performUpkeep",
      "outputs": [],
      "stateMutability": "nonpayable",
      "type": "function"
    },
    {
      "inputs": [
        {
          "internalType": "uint256",
          "name": "requestId",
          "type": "uint256"
        },
        {
          "internalType": "uint256[]",
          "name": "randomWords",
          "type": "uint256[]"
        }
      ],
      "name": "rawFulfillRandomWords",
      "outputs": [],
      "stateMutability": "nonpayable",
      "type": "function"
    }
  ],
  "bytecode": "0x6101606040523480156200001257600080fd5b5060405162001788380380620017888339818101604052810190620000389190620002a0565b858073ffffffffffffffffffffffffffffffffffffffff1660808173ffffffffffffffffffffffffffffffffffffffff1660601b81525050508460a081815250508573ffffffffffffffffffffffffffffffffffffffff1660c08173ffffffffffffffffffffffffffffffffffffffff1660601b815250508360e081815250508267ffffffffffffffff166101008167ffffffffffffffff1660c01b815250508163ffffffff166101208163ffffffff1660e01b815250506000600160146101000a81548160ff021916908360018111156200011957620001186200033c565b5b0217905550426002819055508061014081815250505050505050506200036b565b600080fd5b600073ffffffffffffffffffffffffffffffffffffffff82169050919050565b60006200016c826200013f565b9050919050565b6200017e816200015f565b81146200018a57600080fd5b50565b6000815190506200019e8162000173565b92915050565b6000819050919050565b620001b981620001a4565b8114620001c557600080fd5b50565b600081519050620001d981620001ae565b92915050565b6000819050919050565b620001f481620001df565b81146200020057600080fd5b50565b6000815190506200021481620001e9565b92915050565b600067ffffffffffffffff82169050919050565b62000239816200021a565b81146200024557600080fd5b50565b60008151905062000259816200022e565b92915050565b600063ffffffff82169050919050565b6200027a816200025f565b81146200028657600080fd5b50565b6000815190506200029a816200026f565b92915050565b60008060008060008060c08789031215620002c057620002bf6200013a565b5b6000620002d089828a016200018d565b9650506020620002e389828a01620001c8565b9550506040620002f689828a0162000203565b94505060606200030989828a0162000248565b93505060806200031c89828a0162000289565b92505060a06200032f89828a01620001c8565b9150509295509295509295565b7f4e487b7100000000000000000000000000000000000000000000000000000000600052602160045260246000fd5b60805160601c60a05160c05160601c60e0516101005160c01c6101205160e01c610140516113a8620003e060003960006107a30152600061062d0152600061060a015260006105e9015260006105ad01526000818161038901526107220152600081816102c9015261031d01526113a86000f3fe6080604052600436106100a75760003560e01c806353a2c19a1161006457806353a2c19a146101895780635f1b0fd8146101b45780636e04ff0d146101df578063c1c244e81461021d578063e55ae4e814610248578063fd6673f514610285576100a7565b8063115cbaf5146100ac5780631fe543e3146100d75780632cfcc539146101005780634585e33b1461010a578063473f1ddc14610133578063535bf50f1461015e575b600080fd5b3480156100b857600080fd5b506100c16102b0565b6040516100ce9190610bf4565b60405180910390f35b3480156100e357600080fd5b506100fe60048036038101906100f99190610db2565b6102c7565b005b610108610387565b005b34801561011657600080fd5b50610131600480360381019061012c9190610ec3565b6104f6565b005b34801561013f57600080fd5b506101486106f4565b6040516101559190610f4d565b60405180910390f35b34801561016a57600080fd5b5061017361071e565b6040516101809190610f77565b60405180910390f35b34801561019557600080fd5b5061019e610746565b6040516101ab9190610f77565b60405180910390f35b3480156101c057600080fd5b506101c9610753565b6040516101d69190610f77565b60405180910390f35b3480156101eb57600080fd5b5061020660048036038101906102019190610ec3565b610760565b604051610214929190611035565b60405180910390f35b34801561022957600080fd5b50610232610848565b60405161023f9190610f77565b60405180910390f35b34801561025457600080fd5b5061026f600480360381019061026a9190611065565b610852565b60405161027c9190610f4d565b60405180910390f35b34801561029157600080fd5b5061029a610899565b6040516102a79190610f77565b60405180910390f35b6000600160149054906101000a900460ff16905090565b7f000000000000000000000000000000000000000000000000000000000000000073ffffffffffffffffffffffffffffffffffffffff163373ffffffffffffffffffffffffffffffffffffffff161461037957337f00000000000000000000000000000000000000000000000000000000000000006040517f1cf993f4000000000000000000000000000000000000000000000000000000008152600401610370929190611092565b60405180910390fd5b61038382826108a5565b5050565b7f00000000000000000000000000000000000000000000000000000000000000003410156103e1576040517fbd4e069500000000000000000000000000000000000000000000000000000000815260040160405180910390fd5b600060018111156103f5576103f4610b7d565b5b600160149054906101000a900460ff16600181111561041757610416610b7d565b5b1461044e576040517f1425571c00000000000000000000000000000000000000000000000000000000815260040160405180910390fd5b6000339080600181540180825580915050600190039060005260206000200160009091909190916101000a81548173ffffffffffffffffffffffffffffffffffffffff021916908373ffffffffffffffffffffffffffffffffffffffff1602179055503373ffffffffffffffffffffffffffffffffffffffff167f0805e1d667bddb8a95f0f09880cf94f403fb596ce79928d9f29b74203ba284d460405160405180910390a2565b600061051060405180602001604052806000815250610760565b5090508061057f5747600080549050600160149054906101000a900460ff16600181111561054157610540610b7d565b5b6040517f584327aa000000000000000000000000000000000000000000000000000000008152600401610576939291906110bb565b60405180910390fd5b60018060146101000a81548160ff021916908360018111156105a4576105a3610b7d565b5b021790555060007f000000000000000000000000000000000000000000000000000000000000000073ffffffffffffffffffffffffffffffffffffffff16635d3b1d307f00000000000000000000000000000000000000000000000000000000000000007f000000000000000000000000000000000000000000000000000000000000000060037f000000000000000000000000000000000000000000000000000000000000000060016040518663ffffffff1660e01b815260040161066e9594939291906111a5565b602060405180830381600087803b15801561068857600080fd5b505af115801561069c573d6000803e3d6000fd5b505050506040513d601f19601f820116820180604052508101906106c0919061120d565b9050807fde6349b018d6c03d837b67d9a198a6ba4842546f2295fe963fae141e5dbaef8160405160405180910390a2505050565b6000600160009054906101000a900473ffffffffffffffffffffffffffffffffffffffff16905090565b60007f0000000000000000000000000000000000000000000000000000000000000000905090565b6000600161ffff16905090565b6000600361ffff16905090565b600060606000600160149054906101000a900460ff16600181111561078857610787610b7d565b5b6000600181111561079c5761079b610b7d565b5b14905060007f0000000000000000000000000000000000000000000000000000000000000000600254426107d09190611269565b119050600080600080549050119050600080471190508280156107f05750835b80156107f95750805b80156108025750815b9550856040518060400160405280600381526020017f30783000000000000000000000000000000000000000000000000000000000008152509550955050505050915091565b6000600254905090565b60008082815481106108675761086661129d565b5b9060005260206000200160009054906101000a900473ffffffffffffffffffffffffffffffffffffffff169050919050565b60008080549050905090565b60008080549050826000815181106108c0576108bf61129d565b5b60200260200101516108d291906112fb565b905060008082815481106108e9576108e861129d565b5b9060005260206000200160009054906101000a900473ffffffffffffffffffffffffffffffffffffffff16905080600160006101000a81548173ffffffffffffffffffffffffffffffffffffffff021916908373ffffffffffffffffffffffffffffffffffffffff1602179055506000600160146101000a81548160ff0219169083600181111561097d5761097c610b7d565b5b0217905550600067ffffffffffffffff81111561099d5761099c610c6f565b5b6040519080825280602002602001820160405280156109cb5781602001602082028036833780820191505090505b50600090805190602001906109e1929190610ad6565b504260028190555060008173ffffffffffffffffffffffffffffffffffffffff1647604051610a0f9061135d565b60006040518083038185875af1925050503d8060008114610a4c576040519150601f19603f3d011682016040523d82523d6000602084013e610a51565b606091505b5050905080610a8c576040517f8dea0f0700000000000000000000000000000000000000000000000000000000815260040160405180910390fd5b8173ffffffffffffffffffffffffffffffffffffffff167f745c90b656b4aafe296c8ca35aeacfe56cb96c90e1d320e5da643fff1051b6c060405160405180910390a25050505050565b828054828255906000526020600020908101928215610b4f579160200282015b82811115610b4e5782518260006101000a81548173ffffffffffffffffffffffffffffffffffffffff021916908373ffffffffffffffffffffffffffffffffffffffff16021790555091602001919060010190610af6565b5b509050610b5c9190610b60565b5090565b5b80821115610b79576000816000905550600101610b61565b5090565b7f4e487b7100000000000000000000000000000000000000000000000000000000600052602160045260246000fd5b60028110610bbd57610bbc610b7d565b5b50565b6000819050610bce82610bac565b919050565b6000610bde82610bc0565b9050919050565b610bee81610bd3565b82525050565b6000602082019050610c096000830184610be5565b92915050565b6000604051905090565b600080fd5b600080fd5b6000819050919050565b610c3681610c23565b8114610c4157600080fd5b50565b600081359050610c5381610c2d565b92915050565b600080fd5b6000601f19601f8301169050919050565b7f4e487b7100000000000000000000000000000000000000000000000000000000600052604160045260246000fd5b610ca782610c5e565b810181811067ffffffffffffffff82111715610cc657610cc5610c6f565b5b80604052505050565b6000610cd9610c0f565b9050610ce58282610c9e565b919050565b600067ffffffffffffffff821115610d0557610d04610c6f565b5b602082029050602081019050919050565b600080fd5b6000610d2e610d2984610cea565b610ccf565b90508083825260208201905060208402830185811115610d5157610d50610d16565b5b835b81811015610d7a5780610d668882610c44565b845260208401935050602081019050610d53565b5050509392505050565b600082601f830112610d9957610d98610c59565b5b8135610da9848260208601610d1b565b91505092915050565b60008060408385031215610dc957610dc8610c19565b5b6000610dd785828601610c44565b925050602083013567ffffffffffffffff811115610df857610df7610c1e565b5b610e0485828601610d84565b9150509250929050565b600080fd5b600067ffffffffffffffff821115610e2e57610e2d610c6f565b5b610e3782610c5e565b9050602081019050919050565b82818337600083830152505050565b6000610e66610e6184610e13565b610ccf565b905082815260208101848484011115610e8257610e81610e0e565b5b610e8d848285610e44565b509392505050565b600082601f830112610eaa57610ea9610c59565b5b8135610eba848260208601610e53565b91505092915050565b600060208284031215610ed957610ed8610c19565b5b600082013567ffffffffffffffff811115610ef757610ef6610c1e565b5b610f0384828501610e95565b91505092915050565b600073ffffffffffffffffffffffffffffffffffffffff82169050919050565b6000610f3782610f0c565b9050919050565b610f4781610f2c565b82525050565b6000602082019050610f626000830184610f3e565b92915050565b610f7181610c23565b82525050565b6000602082019050610f8c6000830184610f68565b92915050565b60008115159050919050565b610fa781610f92565b82525050565b600081519050919050565b600082825260208201905092915050565b60005b83811015610fe7578082015181840152602081019050610fcc565b83811115610ff6576000848401525b50505050565b600061100782610fad565b6110118185610fb8565b9350611021818560208601610fc9565b61102a81610c5e565b840191505092915050565b600060408201905061104a6000830185610f9e565b818103602083015261105c8184610ffc565b90509392505050565b60006020828403121561107b5761107a610c19565b5b600061108984828501610c44565b91505092915050565b60006040820190506110a76000830185610f3e565b6110b46020830184610f3e565b9392505050565b60006060820190506110d06000830186610f68565b6110dd6020830185610f68565b6110ea6040830184610f68565b949350505050565b6000819050919050565b611105816110f2565b82525050565b600067ffffffffffffffff82169050919050565b6111288161110b565b82525050565b600061ffff82169050919050565b6111458161112e565b82525050565b600063ffffffff82169050919050565b6111648161114b565b82525050565b6000819050919050565b600061118f61118a6111858461112e565b61116a565b61114b565b9050919050565b61119f81611174565b82525050565b600060a0820190506111ba60008301886110fc565b6111c7602083018761111f565b6111d4604083018661113c565b6111e1606083018561115b565b6111ee6080830184611196565b9695505050505050565b60008151905061120781610c2d565b92915050565b60006020828403121561122357611222610c19565b5b6000611231848285016111f8565b91505092915050565b7f4e487b7100000000000000000000000000000000000000000000000000000000600052601160045260246000fd5b600061127482610c23565b915061127f83610c23565b9250828210156112925761129161123a565b5b828203905092915050565b7f4e487b7100000000000000000000000000000000000000000000000000000000600052603260045260246000fd5b7f4e487b7100000000000000000000000000000000000000000000000000000000600052601260045260246000fd5b600061130682610c23565b915061131183610c23565b925082611321576113206112cc565b5b828206905092915050565b600081905092915050565b50565b600061134760008361132c565b915061135282611337565b600082019050919050565b60006113688261133a565b915081905091905056fea264697066735822122016f6ca72dc32095b2f94ae10e09414b624126f098a6b8612874aa6a83fd56eda64736f6c63430008080033",
  "linkReferences": {},
  "deployedLinkReferences": {}
}